{
	"contracts/00-storage.sol": {
		"Storage": {
			"abi": [
				{
					"inputs": [],
					"stateMutability": "nonpayable",
					"type": "constructor"
				},
				{
					"inputs": [],
					"name": "get",
					"outputs": [
						{
							"internalType": "int256",
							"name": "",
							"type": "int256"
						}
					],
					"stateMutability": "view",
					"type": "function"
				},
				{
					"inputs": [
						{
							"internalType": "int256",
							"name": "num",
							"type": "int256"
						}
					],
					"name": "store",
					"outputs": [],
					"stateMutability": "nonpayable",
					"type": "function"
				}
			],
			"devdoc": {
				"kind": "dev",
				"methods": {},
				"version": 1
			},
			"evm": {
				"assembly": "    /* \"contracts/00-storage.sol\":84:397  contract Storage {... */\n  mstore(0x40, 0x80)\n    /* \"contracts/00-storage.sol\":174:219  constructor() {... */\n  callvalue\n  dup1\n  iszero\n  tag_1\n  jumpi\n  0x00\n  dup1\n  revert\ntag_1:\n  pop\n    /* \"contracts/00-storage.sol\":210:211  5 */\n  0x05\n    /* \"contracts/00-storage.sol\":198:207  numeroDev */\n  0x00\n    /* \"contracts/00-storage.sol\":198:211  numeroDev = 5 */\n  dup2\n  swap1\n  sstore\n  pop\n    /* \"contracts/00-storage.sol\":84:397  contract Storage {... */\n  dataSize(sub_0)\n  dup1\n  dataOffset(sub_0)\n  0x00\n  codecopy\n  0x00\n  return\nstop\n\nsub_0: assembly {\n        /* \"contracts/00-storage.sol\":84:397  contract Storage {... */\n      mstore(0x40, 0x80)\n      callvalue\n      dup1\n      iszero\n      tag_1\n      jumpi\n      0x00\n      dup1\n      revert\n    tag_1:\n      pop\n      jumpi(tag_2, lt(calldatasize, 0x04))\n      shr(0xe0, calldataload(0x00))\n      dup1\n      0x6d4ce63c\n      eq\n      tag_3\n      jumpi\n      dup1\n      0xd80deced\n      eq\n      tag_4\n      jumpi\n    tag_2:\n      0x00\n      dup1\n      revert\n        /* \"contracts/00-storage.sol\":250:324  function get() public view returns (int) {... */\n    tag_3:\n      tag_5\n      tag_6\n      jump\t// in\n    tag_5:\n      mload(0x40)\n      tag_7\n      swap2\n      swap1\n      tag_8\n      jump\t// in\n    tag_7:\n      mload(0x40)\n      dup1\n      swap2\n      sub\n      swap1\n      return\n        /* \"contracts/00-storage.sol\":330:394  function store(int num) public {... */\n    tag_4:\n      tag_9\n      0x04\n      dup1\n      calldatasize\n      sub\n      dup2\n      add\n      swap1\n      tag_10\n      swap2\n      swap1\n      tag_11\n      jump\t// in\n    tag_10:\n      tag_12\n      jump\t// in\n    tag_9:\n      stop\n        /* \"contracts/00-storage.sol\":250:324  function get() public view returns (int) {... */\n    tag_6:\n        /* \"contracts/00-storage.sol\":286:289  int */\n      0x00\n        /* \"contracts/00-storage.sol\":308:317  numeroDev */\n      dup1\n      sload\n        /* \"contracts/00-storage.sol\":301:317  return numeroDev */\n      swap1\n      pop\n        /* \"contracts/00-storage.sol\":250:324  function get() public view returns (int) {... */\n      swap1\n      jump\t// out\n        /* \"contracts/00-storage.sol\":330:394  function store(int num) public {... */\n    tag_12:\n        /* \"contracts/00-storage.sol\":384:387  num */\n      dup1\n        /* \"contracts/00-storage.sol\":371:380  numeroDev */\n      0x00\n      dup1\n        /* \"contracts/00-storage.sol\":371:387  numeroDev += num */\n      dup3\n      dup3\n      sload\n      tag_15\n      swap2\n      swap1\n      tag_16\n      jump\t// in\n    tag_15:\n      swap3\n      pop\n      pop\n      dup2\n      swap1\n      sstore\n      pop\n        /* \"contracts/00-storage.sol\":330:394  function store(int num) public {... */\n      pop\n      jump\t// out\n        /* \"#utility.yul\":7:144   */\n    tag_18:\n        /* \"#utility.yul\":52:57   */\n      0x00\n        /* \"#utility.yul\":90:96   */\n      dup2\n        /* \"#utility.yul\":77:97   */\n      calldataload\n        /* \"#utility.yul\":68:97   */\n      swap1\n      pop\n        /* \"#utility.yul\":106:138   */\n      tag_20\n        /* \"#utility.yul\":132:137   */\n      dup2\n        /* \"#utility.yul\":106:138   */\n      tag_21\n      jump\t// in\n    tag_20:\n        /* \"#utility.yul\":7:144   */\n      swap3\n      swap2\n      pop\n      pop\n      jump\t// out\n        /* \"#utility.yul\":150:477   */\n    tag_11:\n        /* \"#utility.yul\":208:214   */\n      0x00\n        /* \"#utility.yul\":257:259   */\n      0x20\n        /* \"#utility.yul\":245:254   */\n      dup3\n        /* \"#utility.yul\":236:243   */\n      dup5\n        /* \"#utility.yul\":232:255   */\n      sub\n        /* \"#utility.yul\":228:260   */\n      slt\n        /* \"#utility.yul\":225:344   */\n      iszero\n      tag_23\n      jumpi\n        /* \"#utility.yul\":263:342   */\n      tag_24\n      tag_25\n      jump\t// in\n    tag_24:\n        /* \"#utility.yul\":225:344   */\n    tag_23:\n        /* \"#utility.yul\":383:384   */\n      0x00\n        /* \"#utility.yul\":408:460   */\n      tag_26\n        /* \"#utility.yul\":452:459   */\n      dup5\n        /* \"#utility.yul\":443:449   */\n      dup3\n        /* \"#utility.yul\":432:441   */\n      dup6\n        /* \"#utility.yul\":428:450   */\n      add\n        /* \"#utility.yul\":408:460   */\n      tag_18\n      jump\t// in\n    tag_26:\n        /* \"#utility.yul\":398:460   */\n      swap2\n      pop\n        /* \"#utility.yul\":354:470   */\n      pop\n        /* \"#utility.yul\":150:477   */\n      swap3\n      swap2\n      pop\n      pop\n      jump\t// out\n        /* \"#utility.yul\":483:598   */\n    tag_27:\n        /* \"#utility.yul\":568:591   */\n      tag_29\n        /* \"#utility.yul\":585:590   */\n      dup2\n        /* \"#utility.yul\":568:591   */\n      tag_30\n      jump\t// in\n    tag_29:\n        /* \"#utility.yul\":563:566   */\n      dup3\n        /* \"#utility.yul\":556:592   */\n      mstore\n        /* \"#utility.yul\":483:598   */\n      pop\n      pop\n      jump\t// out\n        /* \"#utility.yul\":604:822   */\n    tag_8:\n        /* \"#utility.yul\":695:699   */\n      0x00\n        /* \"#utility.yul\":733:735   */\n      0x20\n        /* \"#utility.yul\":722:731   */\n      dup3\n        /* \"#utility.yul\":718:736   */\n      add\n        /* \"#utility.yul\":710:736   */\n      swap1\n      pop\n        /* \"#utility.yul\":746:815   */\n      tag_32\n        /* \"#utility.yul\":812:813   */\n      0x00\n        /* \"#utility.yul\":801:810   */\n      dup4\n        /* \"#utility.yul\":797:814   */\n      add\n        /* \"#utility.yul\":788:794   */\n      dup5\n        /* \"#utility.yul\":746:815   */\n      tag_27\n      jump\t// in\n    tag_32:\n        /* \"#utility.yul\":604:822   */\n      swap3\n      swap2\n      pop\n      pop\n      jump\t// out\n        /* \"#utility.yul\":909:1434   */\n    tag_16:\n        /* \"#utility.yul\":948:951   */\n      0x00\n        /* \"#utility.yul\":967:986   */\n      tag_36\n        /* \"#utility.yul\":984:985   */\n      dup3\n        /* \"#utility.yul\":967:986   */\n      tag_30\n      jump\t// in\n    tag_36:\n        /* \"#utility.yul\":962:986   */\n      swap2\n      pop\n        /* \"#utility.yul\":1000:1019   */\n      tag_37\n        /* \"#utility.yul\":1017:1018   */\n      dup4\n        /* \"#utility.yul\":1000:1019   */\n      tag_30\n      jump\t// in\n    tag_37:\n        /* \"#utility.yul\":995:1019   */\n      swap3\n      pop\n        /* \"#utility.yul\":1188:1189   */\n      dup2\n        /* \"#utility.yul\":1120:1186   */\n      0x7fffffffffffffffffffffffffffffffffffffffffffffffffffffffffffffff\n        /* \"#utility.yul\":1116:1190   */\n      sub\n        /* \"#utility.yul\":1113:1114   */\n      dup4\n        /* \"#utility.yul\":1109:1191   */\n      sgt\n        /* \"#utility.yul\":1104:1105   */\n      0x00\n        /* \"#utility.yul\":1101:1102   */\n      dup4\n        /* \"#utility.yul\":1097:1106   */\n      slt\n        /* \"#utility.yul\":1090:1107   */\n      iszero\n        /* \"#utility.yul\":1086:1192   */\n      and\n        /* \"#utility.yul\":1083:1215   */\n      iszero\n      tag_38\n      jumpi\n        /* \"#utility.yul\":1195:1213   */\n      tag_39\n      tag_40\n      jump\t// in\n    tag_39:\n        /* \"#utility.yul\":1083:1215   */\n    tag_38:\n        /* \"#utility.yul\":1375:1376   */\n      dup2\n        /* \"#utility.yul\":1307:1373   */\n      0x8000000000000000000000000000000000000000000000000000000000000000\n        /* \"#utility.yul\":1303:1377   */\n      sub\n        /* \"#utility.yul\":1300:1301   */\n      dup4\n        /* \"#utility.yul\":1296:1378   */\n      slt\n        /* \"#utility.yul\":1292:1293   */\n      0x00\n        /* \"#utility.yul\":1289:1290   */\n      dup4\n        /* \"#utility.yul\":1285:1294   */\n      slt\n        /* \"#utility.yul\":1281:1379   */\n      and\n        /* \"#utility.yul\":1278:1402   */\n      iszero\n      tag_41\n      jumpi\n        /* \"#utility.yul\":1382:1400   */\n      tag_42\n      tag_40\n      jump\t// in\n    tag_42:\n        /* \"#utility.yul\":1278:1402   */\n    tag_41:\n        /* \"#utility.yul\":1426:1427   */\n      dup3\n        /* \"#utility.yul\":1423:1424   */\n      dup3\n        /* \"#utility.yul\":1419:1428   */\n      add\n        /* \"#utility.yul\":1412:1428   */\n      swap1\n      pop\n        /* \"#utility.yul\":909:1434   */\n      swap3\n      swap2\n      pop\n      pop\n      jump\t// out\n        /* \"#utility.yul\":1440:1516   */\n    tag_30:\n        /* \"#utility.yul\":1476:1483   */\n      0x00\n        /* \"#utility.yul\":1505:1510   */\n      dup2\n        /* \"#utility.yul\":1494:1510   */\n      swap1\n      pop\n        /* \"#utility.yul\":1440:1516   */\n      swap2\n      swap1\n      pop\n      jump\t// out\n        /* \"#utility.yul\":1522:1702   */\n    tag_40:\n        /* \"#utility.yul\":1570:1647   */\n      0x4e487b7100000000000000000000000000000000000000000000000000000000\n        /* \"#utility.yul\":1567:1568   */\n      0x00\n        /* \"#utility.yul\":1560:1648   */\n      mstore\n        /* \"#utility.yul\":1667:1671   */\n      0x11\n        /* \"#utility.yul\":1664:1665   */\n      0x04\n        /* \"#utility.yul\":1657:1672   */\n      mstore\n        /* \"#utility.yul\":1691:1695   */\n      0x24\n        /* \"#utility.yul\":1688:1689   */\n      0x00\n        /* \"#utility.yul\":1681:1696   */\n      revert\n        /* \"#utility.yul\":1831:1948   */\n    tag_25:\n        /* \"#utility.yul\":1940:1941   */\n      0x00\n        /* \"#utility.yul\":1937:1938   */\n      dup1\n        /* \"#utility.yul\":1930:1942   */\n      revert\n        /* \"#utility.yul\":1954:2074   */\n    tag_21:\n        /* \"#utility.yul\":2026:2049   */\n      tag_49\n        /* \"#utility.yul\":2043:2048   */\n      dup2\n        /* \"#utility.yul\":2026:2049   */\n      tag_30\n      jump\t// in\n    tag_49:\n        /* \"#utility.yul\":2019:2024   */\n      dup2\n        /* \"#utility.yul\":2016:2050   */\n      eq\n        /* \"#utility.yul\":2006:2068   */\n      tag_50\n      jumpi\n        /* \"#utility.yul\":2064:2065   */\n      0x00\n        /* \"#utility.yul\":2061:2062   */\n      dup1\n        /* \"#utility.yul\":2054:2066   */\n      revert\n        /* \"#utility.yul\":2006:2068   */\n    tag_50:\n        /* \"#utility.yul\":1954:2074   */\n      pop\n      jump\t// out\n\n    auxdata: 0xa26469706673582212201270ee6584b52143fc451b87309d2a4a929b657f3c149b257f8db51cbe946fac64736f6c63430008070033\n}\n",
				"bytecode": {
					"linkReferences": {},
					"object": "608060405234801561001057600080fd5b506005600081905550610224806100286000396000f3fe608060405234801561001057600080fd5b50600436106100365760003560e01c80636d4ce63c1461003b578063d80deced14610059575b600080fd5b610043610075565b60405161005091906100ea565b60405180910390f35b610073600480360381019061006e91906100ae565b61007e565b005b60008054905090565b8060008082825461008f9190610105565b9250508190555050565b6000813590506100a8816101d7565b92915050565b6000602082840312156100c4576100c36101d2565b5b60006100d284828501610099565b91505092915050565b6100e481610199565b82525050565b60006020820190506100ff60008301846100db565b92915050565b600061011082610199565b915061011b83610199565b9250817f7fffffffffffffffffffffffffffffffffffffffffffffffffffffffffffffff03831360008312151615610156576101556101a3565b5b817f800000000000000000000000000000000000000000000000000000000000000003831260008312161561018e5761018d6101a3565b5b828201905092915050565b6000819050919050565b7f4e487b7100000000000000000000000000000000000000000000000000000000600052601160045260246000fd5b600080fd5b6101e081610199565b81146101eb57600080fd5b5056fea26469706673582212201270ee6584b52143fc451b87309d2a4a929b657f3c149b257f8db51cbe946fac64736f6c63430008070033",
					"opcodes": "PUSH1 0x80 PUSH1 0x40 MSTORE CALLVALUE DUP1 ISZERO PUSH2 0x10 JUMPI PUSH1 0x0 DUP1 REVERT JUMPDEST POP PUSH1 0x5 PUSH1 0x0 DUP2 SWAP1 SSTORE POP PUSH2 0x224 DUP1 PUSH2 0x28 PUSH1 0x0 CODECOPY PUSH1 0x0 RETURN INVALID PUSH1 0x80 PUSH1 0x40 MSTORE CALLVALUE DUP1 ISZERO PUSH2 0x10 JUMPI PUSH1 0x0 DUP1 REVERT JUMPDEST POP PUSH1 0x4 CALLDATASIZE LT PUSH2 0x36 JUMPI PUSH1 0x0 CALLDATALOAD PUSH1 0xE0 SHR DUP1 PUSH4 0x6D4CE63C EQ PUSH2 0x3B JUMPI DUP1 PUSH4 0xD80DECED EQ PUSH2 0x59 JUMPI JUMPDEST PUSH1 0x0 DUP1 REVERT JUMPDEST PUSH2 0x43 PUSH2 0x75 JUMP JUMPDEST PUSH1 0x40 MLOAD PUSH2 0x50 SWAP2 SWAP1 PUSH2 0xEA JUMP JUMPDEST PUSH1 0x40 MLOAD DUP1 SWAP2 SUB SWAP1 RETURN JUMPDEST PUSH2 0x73 PUSH1 0x4 DUP1 CALLDATASIZE SUB DUP2 ADD SWAP1 PUSH2 0x6E SWAP2 SWAP1 PUSH2 0xAE JUMP JUMPDEST PUSH2 0x7E JUMP JUMPDEST STOP JUMPDEST PUSH1 0x0 DUP1 SLOAD SWAP1 POP SWAP1 JUMP JUMPDEST DUP1 PUSH1 0x0 DUP1 DUP3 DUP3 SLOAD PUSH2 0x8F SWAP2 SWAP1 PUSH2 0x105 JUMP JUMPDEST SWAP3 POP POP DUP2 SWAP1 SSTORE POP POP JUMP JUMPDEST PUSH1 0x0 DUP2 CALLDATALOAD SWAP1 POP PUSH2 0xA8 DUP2 PUSH2 0x1D7 JUMP JUMPDEST SWAP3 SWAP2 POP POP JUMP JUMPDEST PUSH1 0x0 PUSH1 0x20 DUP3 DUP5 SUB SLT ISZERO PUSH2 0xC4 JUMPI PUSH2 0xC3 PUSH2 0x1D2 JUMP JUMPDEST JUMPDEST PUSH1 0x0 PUSH2 0xD2 DUP5 DUP3 DUP6 ADD PUSH2 0x99 JUMP JUMPDEST SWAP2 POP POP SWAP3 SWAP2 POP POP JUMP JUMPDEST PUSH2 0xE4 DUP2 PUSH2 0x199 JUMP JUMPDEST DUP3 MSTORE POP POP JUMP JUMPDEST PUSH1 0x0 PUSH1 0x20 DUP3 ADD SWAP1 POP PUSH2 0xFF PUSH1 0x0 DUP4 ADD DUP5 PUSH2 0xDB JUMP JUMPDEST SWAP3 SWAP2 POP POP JUMP JUMPDEST PUSH1 0x0 PUSH2 0x110 DUP3 PUSH2 0x199 JUMP JUMPDEST SWAP2 POP PUSH2 0x11B DUP4 PUSH2 0x199 JUMP JUMPDEST SWAP3 POP DUP2 PUSH32 0x7FFFFFFFFFFFFFFFFFFFFFFFFFFFFFFFFFFFFFFFFFFFFFFFFFFFFFFFFFFFFFFF SUB DUP4 SGT PUSH1 0x0 DUP4 SLT ISZERO AND ISZERO PUSH2 0x156 JUMPI PUSH2 0x155 PUSH2 0x1A3 JUMP JUMPDEST JUMPDEST DUP2 PUSH32 0x8000000000000000000000000000000000000000000000000000000000000000 SUB DUP4 SLT PUSH1 0x0 DUP4 SLT AND ISZERO PUSH2 0x18E JUMPI PUSH2 0x18D PUSH2 0x1A3 JUMP JUMPDEST JUMPDEST DUP3 DUP3 ADD SWAP1 POP SWAP3 SWAP2 POP POP JUMP JUMPDEST PUSH1 0x0 DUP2 SWAP1 POP SWAP2 SWAP1 POP JUMP JUMPDEST PUSH32 0x4E487B7100000000000000000000000000000000000000000000000000000000 PUSH1 0x0 MSTORE PUSH1 0x11 PUSH1 0x4 MSTORE PUSH1 0x24 PUSH1 0x0 REVERT JUMPDEST PUSH1 0x0 DUP1 REVERT JUMPDEST PUSH2 0x1E0 DUP2 PUSH2 0x199 JUMP JUMPDEST DUP2 EQ PUSH2 0x1EB JUMPI PUSH1 0x0 DUP1 REVERT JUMPDEST POP JUMP INVALID LOG2 PUSH5 0x6970667358 0x22 SLT KECCAK256 SLT PUSH17 0xEE6584B52143FC451B87309D2A4A929B65 PUSH32 0x3C149B257F8DB51CBE946FAC64736F6C63430008070033000000000000000000 "
				},
				"gasEstimates": {
					"creation": {
						"codeDepositCost": "109600",
						"executionCost": "22273",
						"totalCost": "131873"
					},
					"external": {
						"get()": "2415",
						"store(int256)": "infinite"
					}
				},
				"methodIdentifiers": {
					"get()": "6d4ce63c",
					"store(int256)": "d80deced"
				}
			},
			"storageLayout": {
				"storage": [
					{
						"astId": 3,
						"contract": "contracts/00-storage.sol:Storage",
						"label": "numeroDev",
						"offset": 0,
						"slot": "0",
						"type": "t_int256"
					}
				],
				"types": {
					"t_int256": {
						"encoding": "inplace",
						"label": "int256",
						"numberOfBytes": "32"
					}
				}
			},
			"userdoc": {
				"kind": "user",
				"methods": {},
				"version": 1
			}
		}
	}
}