{
	"contracts/01-bank.sol": {
		"Bank": {
			"abi": [
				{
					"inputs": [],
					"stateMutability": "nonpayable",
					"type": "constructor"
				},
				{
					"anonymous": false,
					"inputs": [
						{
							"indexed": false,
							"internalType": "address",
							"name": "target",
							"type": "address"
						},
						{
							"indexed": false,
							"internalType": "uint256",
							"name": "balance",
							"type": "uint256"
						}
					],
					"name": "BalanceIncreased",
					"type": "event"
				},
				{
					"anonymous": false,
					"inputs": [
						{
							"indexed": false,
							"internalType": "address",
							"name": "oldOwner",
							"type": "address"
						},
						{
							"indexed": false,
							"internalType": "address",
							"name": "newOwner",
							"type": "address"
						}
					],
					"name": "OwnerChanged",
					"type": "event"
				},
				{
					"inputs": [
						{
							"internalType": "address",
							"name": "to",
							"type": "address"
						},
						{
							"internalType": "uint256",
							"name": "value",
							"type": "uint256"
						}
					],
					"name": "addBalance",
					"outputs": [],
					"stateMutability": "nonpayable",
					"type": "function"
				},
				{
					"inputs": [
						{
							"internalType": "address",
							"name": "",
							"type": "address"
						}
					],
					"name": "addressToBalance",
					"outputs": [
						{
							"internalType": "uint256",
							"name": "",
							"type": "uint256"
						}
					],
					"stateMutability": "view",
					"type": "function"
				},
				{
					"inputs": [
						{
							"internalType": "address",
							"name": "newOwnerContract",
							"type": "address"
						}
					],
					"name": "changeOwner",
					"outputs": [],
					"stateMutability": "nonpayable",
					"type": "function"
				}
			],
			"devdoc": {
				"kind": "dev",
				"methods": {},
				"version": 1
			},
			"evm": {
				"assembly": "    /* \"contracts/01-bank.sol\":70:837  contract Bank {... */\n  mstore(0x40, 0x80)\n    /* \"contracts/01-bank.sol\":468:517  constructor() {... */\n  callvalue\n  dup1\n  iszero\n  tag_1\n  jumpi\n  0x00\n  dup1\n  revert\ntag_1:\n  pop\n    /* \"contracts/01-bank.sol\":500:510  msg.sender */\n  caller\n    /* \"contracts/01-bank.sol\":492:497  owner */\n  0x00\n  dup1\n    /* \"contracts/01-bank.sol\":492:510  owner = msg.sender */\n  0x0100\n  exp\n  dup2\n  sload\n  dup2\n  0xffffffffffffffffffffffffffffffffffffffff\n  mul\n  not\n  and\n  swap1\n  dup4\n  0xffffffffffffffffffffffffffffffffffffffff\n  and\n  mul\n  or\n  swap1\n  sstore\n  pop\n    /* \"contracts/01-bank.sol\":70:837  contract Bank {... */\n  dataSize(sub_0)\n  dup1\n  dataOffset(sub_0)\n  0x00\n  codecopy\n  0x00\n  return\nstop\n\nsub_0: assembly {\n        /* \"contracts/01-bank.sol\":70:837  contract Bank {... */\n      mstore(0x40, 0x80)\n      callvalue\n      dup1\n      iszero\n      tag_1\n      jumpi\n      0x00\n      dup1\n      revert\n    tag_1:\n      pop\n      jumpi(tag_2, lt(calldatasize, 0x04))\n      shr(0xe0, calldataload(0x00))\n      dup1\n      0x21e5383a\n      eq\n      tag_3\n      jumpi\n      dup1\n      0x237c980a\n      eq\n      tag_4\n      jumpi\n      dup1\n      0xa6f9dae1\n      eq\n      tag_5\n      jumpi\n    tag_2:\n      0x00\n      dup1\n      revert\n        /* \"contracts/01-bank.sol\":546:702  function addBalance(address to, uint value) public isOwner {... */\n    tag_3:\n      tag_6\n      0x04\n      dup1\n      calldatasize\n      sub\n      dup2\n      add\n      swap1\n      tag_7\n      swap2\n      swap1\n      tag_8\n      jump\t// in\n    tag_7:\n      tag_9\n      jump\t// in\n    tag_6:\n      stop\n        /* \"contracts/01-bank.sol\":136:184  mapping(address => uint) public addressToBalance */\n    tag_4:\n      tag_10\n      0x04\n      dup1\n      calldatasize\n      sub\n      dup2\n      add\n      swap1\n      tag_11\n      swap2\n      swap1\n      tag_12\n      jump\t// in\n    tag_11:\n      tag_13\n      jump\t// in\n    tag_10:\n      mload(0x40)\n      tag_14\n      swap2\n      swap1\n      tag_15\n      jump\t// in\n    tag_14:\n      mload(0x40)\n      dup1\n      swap2\n      sub\n      swap1\n      return\n        /* \"contracts/01-bank.sol\":708:835  function changeOwner(address newOwnerContract) public isOwner{... */\n    tag_5:\n      tag_16\n      0x04\n      dup1\n      calldatasize\n      sub\n      dup2\n      add\n      swap1\n      tag_17\n      swap2\n      swap1\n      tag_12\n      jump\t// in\n    tag_17:\n      tag_18\n      jump\t// in\n    tag_16:\n      stop\n        /* \"contracts/01-bank.sol\":546:702  function addBalance(address to, uint value) public isOwner {... */\n    tag_9:\n        /* \"contracts/01-bank.sol\":259:264  owner */\n      0x00\n      dup1\n      sload\n      swap1\n      0x0100\n      exp\n      swap1\n      div\n      0xffffffffffffffffffffffffffffffffffffffff\n      and\n        /* \"contracts/01-bank.sol\":245:264  msg.sender == owner */\n      0xffffffffffffffffffffffffffffffffffffffff\n      and\n        /* \"contracts/01-bank.sol\":245:255  msg.sender */\n      caller\n        /* \"contracts/01-bank.sol\":245:264  msg.sender == owner */\n      0xffffffffffffffffffffffffffffffffffffffff\n      and\n      eq\n        /* \"contracts/01-bank.sol\":237:290  require(msg.sender == owner , \"Sender is not owner!\") */\n      tag_20\n      jumpi\n      mload(0x40)\n      0x08c379a000000000000000000000000000000000000000000000000000000000\n      dup2\n      mstore\n      0x04\n      add\n      tag_21\n      swap1\n      tag_22\n      jump\t// in\n    tag_21:\n      mload(0x40)\n      dup1\n      swap2\n      sub\n      swap1\n      revert\n    tag_20:\n        /* \"contracts/01-bank.sol\":648:653  value */\n      dup1\n        /* \"contracts/01-bank.sol\":615:631  addressToBalance */\n      0x01\n        /* \"contracts/01-bank.sol\":615:644  addressToBalance[address(to)] */\n      0x00\n        /* \"contracts/01-bank.sol\":640:642  to */\n      dup5\n        /* \"contracts/01-bank.sol\":615:644  addressToBalance[address(to)] */\n      0xffffffffffffffffffffffffffffffffffffffff\n      and\n      0xffffffffffffffffffffffffffffffffffffffff\n      and\n      dup2\n      mstore\n      0x20\n      add\n      swap1\n      dup2\n      mstore\n      0x20\n      add\n      0x00\n      keccak256\n      0x00\n        /* \"contracts/01-bank.sol\":615:653  addressToBalance[address(to)] += value */\n      dup3\n      dup3\n      sload\n      tag_24\n      swap2\n      swap1\n      tag_25\n      jump\t// in\n    tag_24:\n      swap3\n      pop\n      pop\n      dup2\n      swap1\n      sstore\n      pop\n        /* \"contracts/01-bank.sol\":668:695  BalanceIncreased(to, value) */\n      0x7a702e80a9c183a6ce9d6732991df2e914555ba35a364a70aed2433984e7544b\n        /* \"contracts/01-bank.sol\":685:687  to */\n      dup3\n        /* \"contracts/01-bank.sol\":689:694  value */\n      dup3\n        /* \"contracts/01-bank.sol\":668:695  BalanceIncreased(to, value) */\n      mload(0x40)\n      tag_26\n      swap3\n      swap2\n      swap1\n      tag_27\n      jump\t// in\n    tag_26:\n      mload(0x40)\n      dup1\n      swap2\n      sub\n      swap1\n      log1\n        /* \"contracts/01-bank.sol\":546:702  function addBalance(address to, uint value) public isOwner {... */\n      pop\n      pop\n      jump\t// out\n        /* \"contracts/01-bank.sol\":136:184  mapping(address => uint) public addressToBalance */\n    tag_13:\n      mstore(0x20, 0x01)\n      dup1\n      0x00\n      mstore\n      keccak256(0x00, 0x40)\n      0x00\n      swap2\n      pop\n      swap1\n      pop\n      sload\n      dup2\n      jump\t// out\n        /* \"contracts/01-bank.sol\":708:835  function changeOwner(address newOwnerContract) public isOwner{... */\n    tag_18:\n        /* \"contracts/01-bank.sol\":259:264  owner */\n      0x00\n      dup1\n      sload\n      swap1\n      0x0100\n      exp\n      swap1\n      div\n      0xffffffffffffffffffffffffffffffffffffffff\n      and\n        /* \"contracts/01-bank.sol\":245:264  msg.sender == owner */\n      0xffffffffffffffffffffffffffffffffffffffff\n      and\n        /* \"contracts/01-bank.sol\":245:255  msg.sender */\n      caller\n        /* \"contracts/01-bank.sol\":245:264  msg.sender == owner */\n      0xffffffffffffffffffffffffffffffffffffffff\n      and\n      eq\n        /* \"contracts/01-bank.sol\":237:290  require(msg.sender == owner , \"Sender is not owner!\") */\n      tag_29\n      jumpi\n      mload(0x40)\n      0x08c379a000000000000000000000000000000000000000000000000000000000\n      dup2\n      mstore\n      0x04\n      add\n      tag_30\n      swap1\n      tag_22\n      jump\t// in\n    tag_30:\n      mload(0x40)\n      dup1\n      swap2\n      sub\n      swap1\n      revert\n    tag_29:\n        /* \"contracts/01-bank.sol\":784:821  OwnerChanged(owner, newOwnerContract) */\n      0xb532073b38c83145e3e5135377a08bf9aab55bc0fd7c1179cd4fb995d2a5159c\n        /* \"contracts/01-bank.sol\":797:802  owner */\n      0x00\n      dup1\n      sload\n      swap1\n      0x0100\n      exp\n      swap1\n      div\n      0xffffffffffffffffffffffffffffffffffffffff\n      and\n        /* \"contracts/01-bank.sol\":804:820  newOwnerContract */\n      dup3\n        /* \"contracts/01-bank.sol\":784:821  OwnerChanged(owner, newOwnerContract) */\n      mload(0x40)\n      tag_32\n      swap3\n      swap2\n      swap1\n      tag_33\n      jump\t// in\n    tag_32:\n      mload(0x40)\n      dup1\n      swap2\n      sub\n      swap1\n      log1\n        /* \"contracts/01-bank.sol\":708:835  function changeOwner(address newOwnerContract) public isOwner{... */\n      pop\n      jump\t// out\n        /* \"#utility.yul\":7:146   */\n    tag_35:\n        /* \"#utility.yul\":53:58   */\n      0x00\n        /* \"#utility.yul\":91:97   */\n      dup2\n        /* \"#utility.yul\":78:98   */\n      calldataload\n        /* \"#utility.yul\":69:98   */\n      swap1\n      pop\n        /* \"#utility.yul\":107:140   */\n      tag_37\n        /* \"#utility.yul\":134:139   */\n      dup2\n        /* \"#utility.yul\":107:140   */\n      tag_38\n      jump\t// in\n    tag_37:\n        /* \"#utility.yul\":7:146   */\n      swap3\n      swap2\n      pop\n      pop\n      jump\t// out\n        /* \"#utility.yul\":152:291   */\n    tag_39:\n        /* \"#utility.yul\":198:203   */\n      0x00\n        /* \"#utility.yul\":236:242   */\n      dup2\n        /* \"#utility.yul\":223:243   */\n      calldataload\n        /* \"#utility.yul\":214:243   */\n      swap1\n      pop\n        /* \"#utility.yul\":252:285   */\n      tag_41\n        /* \"#utility.yul\":279:284   */\n      dup2\n        /* \"#utility.yul\":252:285   */\n      tag_42\n      jump\t// in\n    tag_41:\n        /* \"#utility.yul\":152:291   */\n      swap3\n      swap2\n      pop\n      pop\n      jump\t// out\n        /* \"#utility.yul\":297:626   */\n    tag_12:\n        /* \"#utility.yul\":356:362   */\n      0x00\n        /* \"#utility.yul\":405:407   */\n      0x20\n        /* \"#utility.yul\":393:402   */\n      dup3\n        /* \"#utility.yul\":384:391   */\n      dup5\n        /* \"#utility.yul\":380:403   */\n      sub\n        /* \"#utility.yul\":376:408   */\n      slt\n        /* \"#utility.yul\":373:492   */\n      iszero\n      tag_44\n      jumpi\n        /* \"#utility.yul\":411:490   */\n      tag_45\n      tag_46\n      jump\t// in\n    tag_45:\n        /* \"#utility.yul\":373:492   */\n    tag_44:\n        /* \"#utility.yul\":531:532   */\n      0x00\n        /* \"#utility.yul\":556:609   */\n      tag_47\n        /* \"#utility.yul\":601:608   */\n      dup5\n        /* \"#utility.yul\":592:598   */\n      dup3\n        /* \"#utility.yul\":581:590   */\n      dup6\n        /* \"#utility.yul\":577:599   */\n      add\n        /* \"#utility.yul\":556:609   */\n      tag_35\n      jump\t// in\n    tag_47:\n        /* \"#utility.yul\":546:609   */\n      swap2\n      pop\n        /* \"#utility.yul\":502:619   */\n      pop\n        /* \"#utility.yul\":297:626   */\n      swap3\n      swap2\n      pop\n      pop\n      jump\t// out\n        /* \"#utility.yul\":632:1106   */\n    tag_8:\n        /* \"#utility.yul\":700:706   */\n      0x00\n        /* \"#utility.yul\":708:714   */\n      dup1\n        /* \"#utility.yul\":757:759   */\n      0x40\n        /* \"#utility.yul\":745:754   */\n      dup4\n        /* \"#utility.yul\":736:743   */\n      dup6\n        /* \"#utility.yul\":732:755   */\n      sub\n        /* \"#utility.yul\":728:760   */\n      slt\n        /* \"#utility.yul\":725:844   */\n      iszero\n      tag_49\n      jumpi\n        /* \"#utility.yul\":763:842   */\n      tag_50\n      tag_46\n      jump\t// in\n    tag_50:\n        /* \"#utility.yul\":725:844   */\n    tag_49:\n        /* \"#utility.yul\":883:884   */\n      0x00\n        /* \"#utility.yul\":908:961   */\n      tag_51\n        /* \"#utility.yul\":953:960   */\n      dup6\n        /* \"#utility.yul\":944:950   */\n      dup3\n        /* \"#utility.yul\":933:942   */\n      dup7\n        /* \"#utility.yul\":929:951   */\n      add\n        /* \"#utility.yul\":908:961   */\n      tag_35\n      jump\t// in\n    tag_51:\n        /* \"#utility.yul\":898:961   */\n      swap3\n      pop\n        /* \"#utility.yul\":854:971   */\n      pop\n        /* \"#utility.yul\":1010:1012   */\n      0x20\n        /* \"#utility.yul\":1036:1089   */\n      tag_52\n        /* \"#utility.yul\":1081:1088   */\n      dup6\n        /* \"#utility.yul\":1072:1078   */\n      dup3\n        /* \"#utility.yul\":1061:1070   */\n      dup7\n        /* \"#utility.yul\":1057:1079   */\n      add\n        /* \"#utility.yul\":1036:1089   */\n      tag_39\n      jump\t// in\n    tag_52:\n        /* \"#utility.yul\":1026:1089   */\n      swap2\n      pop\n        /* \"#utility.yul\":981:1099   */\n      pop\n        /* \"#utility.yul\":632:1106   */\n      swap3\n      pop\n      swap3\n      swap1\n      pop\n      jump\t// out\n        /* \"#utility.yul\":1112:1230   */\n    tag_53:\n        /* \"#utility.yul\":1199:1223   */\n      tag_55\n        /* \"#utility.yul\":1217:1222   */\n      dup2\n        /* \"#utility.yul\":1199:1223   */\n      tag_56\n      jump\t// in\n    tag_55:\n        /* \"#utility.yul\":1194:1197   */\n      dup3\n        /* \"#utility.yul\":1187:1224   */\n      mstore\n        /* \"#utility.yul\":1112:1230   */\n      pop\n      pop\n      jump\t// out\n        /* \"#utility.yul\":1236:1602   */\n    tag_57:\n        /* \"#utility.yul\":1378:1381   */\n      0x00\n        /* \"#utility.yul\":1399:1466   */\n      tag_59\n        /* \"#utility.yul\":1463:1465   */\n      0x14\n        /* \"#utility.yul\":1458:1461   */\n      dup4\n        /* \"#utility.yul\":1399:1466   */\n      tag_60\n      jump\t// in\n    tag_59:\n        /* \"#utility.yul\":1392:1466   */\n      swap2\n      pop\n        /* \"#utility.yul\":1475:1568   */\n      tag_61\n        /* \"#utility.yul\":1564:1567   */\n      dup3\n        /* \"#utility.yul\":1475:1568   */\n      tag_62\n      jump\t// in\n    tag_61:\n        /* \"#utility.yul\":1593:1595   */\n      0x20\n        /* \"#utility.yul\":1588:1591   */\n      dup3\n        /* \"#utility.yul\":1584:1596   */\n      add\n        /* \"#utility.yul\":1577:1596   */\n      swap1\n      pop\n        /* \"#utility.yul\":1236:1602   */\n      swap2\n      swap1\n      pop\n      jump\t// out\n        /* \"#utility.yul\":1608:1726   */\n    tag_63:\n        /* \"#utility.yul\":1695:1719   */\n      tag_65\n        /* \"#utility.yul\":1713:1718   */\n      dup2\n        /* \"#utility.yul\":1695:1719   */\n      tag_66\n      jump\t// in\n    tag_65:\n        /* \"#utility.yul\":1690:1693   */\n      dup3\n        /* \"#utility.yul\":1683:1720   */\n      mstore\n        /* \"#utility.yul\":1608:1726   */\n      pop\n      pop\n      jump\t// out\n        /* \"#utility.yul\":1732:2064   */\n    tag_33:\n        /* \"#utility.yul\":1853:1857   */\n      0x00\n        /* \"#utility.yul\":1891:1893   */\n      0x40\n        /* \"#utility.yul\":1880:1889   */\n      dup3\n        /* \"#utility.yul\":1876:1894   */\n      add\n        /* \"#utility.yul\":1868:1894   */\n      swap1\n      pop\n        /* \"#utility.yul\":1904:1975   */\n      tag_68\n        /* \"#utility.yul\":1972:1973   */\n      0x00\n        /* \"#utility.yul\":1961:1970   */\n      dup4\n        /* \"#utility.yul\":1957:1974   */\n      add\n        /* \"#utility.yul\":1948:1954   */\n      dup6\n        /* \"#utility.yul\":1904:1975   */\n      tag_53\n      jump\t// in\n    tag_68:\n        /* \"#utility.yul\":1985:2057   */\n      tag_69\n        /* \"#utility.yul\":2053:2055   */\n      0x20\n        /* \"#utility.yul\":2042:2051   */\n      dup4\n        /* \"#utility.yul\":2038:2056   */\n      add\n        /* \"#utility.yul\":2029:2035   */\n      dup5\n        /* \"#utility.yul\":1985:2057   */\n      tag_53\n      jump\t// in\n    tag_69:\n        /* \"#utility.yul\":1732:2064   */\n      swap4\n      swap3\n      pop\n      pop\n      pop\n      jump\t// out\n        /* \"#utility.yul\":2070:2402   */\n    tag_27:\n        /* \"#utility.yul\":2191:2195   */\n      0x00\n        /* \"#utility.yul\":2229:2231   */\n      0x40\n        /* \"#utility.yul\":2218:2227   */\n      dup3\n        /* \"#utility.yul\":2214:2232   */\n      add\n        /* \"#utility.yul\":2206:2232   */\n      swap1\n      pop\n        /* \"#utility.yul\":2242:2313   */\n      tag_71\n        /* \"#utility.yul\":2310:2311   */\n      0x00\n        /* \"#utility.yul\":2299:2308   */\n      dup4\n        /* \"#utility.yul\":2295:2312   */\n      add\n        /* \"#utility.yul\":2286:2292   */\n      dup6\n        /* \"#utility.yul\":2242:2313   */\n      tag_53\n      jump\t// in\n    tag_71:\n        /* \"#utility.yul\":2323:2395   */\n      tag_72\n        /* \"#utility.yul\":2391:2393   */\n      0x20\n        /* \"#utility.yul\":2380:2389   */\n      dup4\n        /* \"#utility.yul\":2376:2394   */\n      add\n        /* \"#utility.yul\":2367:2373   */\n      dup5\n        /* \"#utility.yul\":2323:2395   */\n      tag_63\n      jump\t// in\n    tag_72:\n        /* \"#utility.yul\":2070:2402   */\n      swap4\n      swap3\n      pop\n      pop\n      pop\n      jump\t// out\n        /* \"#utility.yul\":2408:2827   */\n    tag_22:\n        /* \"#utility.yul\":2574:2578   */\n      0x00\n        /* \"#utility.yul\":2612:2614   */\n      0x20\n        /* \"#utility.yul\":2601:2610   */\n      dup3\n        /* \"#utility.yul\":2597:2615   */\n      add\n        /* \"#utility.yul\":2589:2615   */\n      swap1\n      pop\n        /* \"#utility.yul\":2661:2670   */\n      dup2\n        /* \"#utility.yul\":2655:2659   */\n      dup2\n        /* \"#utility.yul\":2651:2671   */\n      sub\n        /* \"#utility.yul\":2647:2648   */\n      0x00\n        /* \"#utility.yul\":2636:2645   */\n      dup4\n        /* \"#utility.yul\":2632:2649   */\n      add\n        /* \"#utility.yul\":2625:2672   */\n      mstore\n        /* \"#utility.yul\":2689:2820   */\n      tag_74\n        /* \"#utility.yul\":2815:2819   */\n      dup2\n        /* \"#utility.yul\":2689:2820   */\n      tag_57\n      jump\t// in\n    tag_74:\n        /* \"#utility.yul\":2681:2820   */\n      swap1\n      pop\n        /* \"#utility.yul\":2408:2827   */\n      swap2\n      swap1\n      pop\n      jump\t// out\n        /* \"#utility.yul\":2833:3055   */\n    tag_15:\n        /* \"#utility.yul\":2926:2930   */\n      0x00\n        /* \"#utility.yul\":2964:2966   */\n      0x20\n        /* \"#utility.yul\":2953:2962   */\n      dup3\n        /* \"#utility.yul\":2949:2967   */\n      add\n        /* \"#utility.yul\":2941:2967   */\n      swap1\n      pop\n        /* \"#utility.yul\":2977:3048   */\n      tag_76\n        /* \"#utility.yul\":3045:3046   */\n      0x00\n        /* \"#utility.yul\":3034:3043   */\n      dup4\n        /* \"#utility.yul\":3030:3047   */\n      add\n        /* \"#utility.yul\":3021:3027   */\n      dup5\n        /* \"#utility.yul\":2977:3048   */\n      tag_63\n      jump\t// in\n    tag_76:\n        /* \"#utility.yul\":2833:3055   */\n      swap3\n      swap2\n      pop\n      pop\n      jump\t// out\n        /* \"#utility.yul\":3142:3311   */\n    tag_60:\n        /* \"#utility.yul\":3226:3237   */\n      0x00\n        /* \"#utility.yul\":3260:3266   */\n      dup3\n        /* \"#utility.yul\":3255:3258   */\n      dup3\n        /* \"#utility.yul\":3248:3267   */\n      mstore\n        /* \"#utility.yul\":3300:3304   */\n      0x20\n        /* \"#utility.yul\":3295:3298   */\n      dup3\n        /* \"#utility.yul\":3291:3305   */\n      add\n        /* \"#utility.yul\":3276:3305   */\n      swap1\n      pop\n        /* \"#utility.yul\":3142:3311   */\n      swap3\n      swap2\n      pop\n      pop\n      jump\t// out\n        /* \"#utility.yul\":3317:3622   */\n    tag_25:\n        /* \"#utility.yul\":3357:3360   */\n      0x00\n        /* \"#utility.yul\":3376:3396   */\n      tag_81\n        /* \"#utility.yul\":3394:3395   */\n      dup3\n        /* \"#utility.yul\":3376:3396   */\n      tag_66\n      jump\t// in\n    tag_81:\n        /* \"#utility.yul\":3371:3396   */\n      swap2\n      pop\n        /* \"#utility.yul\":3410:3430   */\n      tag_82\n        /* \"#utility.yul\":3428:3429   */\n      dup4\n        /* \"#utility.yul\":3410:3430   */\n      tag_66\n      jump\t// in\n    tag_82:\n        /* \"#utility.yul\":3405:3430   */\n      swap3\n      pop\n        /* \"#utility.yul\":3564:3565   */\n      dup3\n        /* \"#utility.yul\":3496:3562   */\n      0xffffffffffffffffffffffffffffffffffffffffffffffffffffffffffffffff\n        /* \"#utility.yul\":3492:3566   */\n      sub\n        /* \"#utility.yul\":3489:3490   */\n      dup3\n        /* \"#utility.yul\":3486:3567   */\n      gt\n        /* \"#utility.yul\":3483:3590   */\n      iszero\n      tag_83\n      jumpi\n        /* \"#utility.yul\":3570:3588   */\n      tag_84\n      tag_85\n      jump\t// in\n    tag_84:\n        /* \"#utility.yul\":3483:3590   */\n    tag_83:\n        /* \"#utility.yul\":3614:3615   */\n      dup3\n        /* \"#utility.yul\":3611:3612   */\n      dup3\n        /* \"#utility.yul\":3607:3616   */\n      add\n        /* \"#utility.yul\":3600:3616   */\n      swap1\n      pop\n        /* \"#utility.yul\":3317:3622   */\n      swap3\n      swap2\n      pop\n      pop\n      jump\t// out\n        /* \"#utility.yul\":3628:3724   */\n    tag_56:\n        /* \"#utility.yul\":3665:3672   */\n      0x00\n        /* \"#utility.yul\":3694:3718   */\n      tag_87\n        /* \"#utility.yul\":3712:3717   */\n      dup3\n        /* \"#utility.yul\":3694:3718   */\n      tag_88\n      jump\t// in\n    tag_87:\n        /* \"#utility.yul\":3683:3718   */\n      swap1\n      pop\n        /* \"#utility.yul\":3628:3724   */\n      swap2\n      swap1\n      pop\n      jump\t// out\n        /* \"#utility.yul\":3730:3856   */\n    tag_88:\n        /* \"#utility.yul\":3767:3774   */\n      0x00\n        /* \"#utility.yul\":3807:3849   */\n      0xffffffffffffffffffffffffffffffffffffffff\n        /* \"#utility.yul\":3800:3805   */\n      dup3\n        /* \"#utility.yul\":3796:3850   */\n      and\n        /* \"#utility.yul\":3785:3850   */\n      swap1\n      pop\n        /* \"#utility.yul\":3730:3856   */\n      swap2\n      swap1\n      pop\n      jump\t// out\n        /* \"#utility.yul\":3862:3939   */\n    tag_66:\n        /* \"#utility.yul\":3899:3906   */\n      0x00\n        /* \"#utility.yul\":3928:3933   */\n      dup2\n        /* \"#utility.yul\":3917:3933   */\n      swap1\n      pop\n        /* \"#utility.yul\":3862:3939   */\n      swap2\n      swap1\n      pop\n      jump\t// out\n        /* \"#utility.yul\":3945:4125   */\n    tag_85:\n        /* \"#utility.yul\":3993:4070   */\n      0x4e487b7100000000000000000000000000000000000000000000000000000000\n        /* \"#utility.yul\":3990:3991   */\n      0x00\n        /* \"#utility.yul\":3983:4071   */\n      mstore\n        /* \"#utility.yul\":4090:4094   */\n      0x11\n        /* \"#utility.yul\":4087:4088   */\n      0x04\n        /* \"#utility.yul\":4080:4095   */\n      mstore\n        /* \"#utility.yul\":4114:4118   */\n      0x24\n        /* \"#utility.yul\":4111:4112   */\n      0x00\n        /* \"#utility.yul\":4104:4119   */\n      revert\n        /* \"#utility.yul\":4254:4371   */\n    tag_46:\n        /* \"#utility.yul\":4363:4364   */\n      0x00\n        /* \"#utility.yul\":4360:4361   */\n      dup1\n        /* \"#utility.yul\":4353:4365   */\n      revert\n        /* \"#utility.yul\":4377:4547   */\n    tag_62:\n        /* \"#utility.yul\":4517:4539   */\n      0x53656e646572206973206e6f74206f776e657221000000000000000000000000\n        /* \"#utility.yul\":4513:4514   */\n      0x00\n        /* \"#utility.yul\":4505:4511   */\n      dup3\n        /* \"#utility.yul\":4501:4515   */\n      add\n        /* \"#utility.yul\":4494:4540   */\n      mstore\n        /* \"#utility.yul\":4377:4547   */\n      pop\n      jump\t// out\n        /* \"#utility.yul\":4553:4675   */\n    tag_38:\n        /* \"#utility.yul\":4626:4650   */\n      tag_97\n        /* \"#utility.yul\":4644:4649   */\n      dup2\n        /* \"#utility.yul\":4626:4650   */\n      tag_56\n      jump\t// in\n    tag_97:\n        /* \"#utility.yul\":4619:4624   */\n      dup2\n        /* \"#utility.yul\":4616:4651   */\n      eq\n        /* \"#utility.yul\":4606:4669   */\n      tag_98\n      jumpi\n        /* \"#utility.yul\":4665:4666   */\n      0x00\n        /* \"#utility.yul\":4662:4663   */\n      dup1\n        /* \"#utility.yul\":4655:4667   */\n      revert\n        /* \"#utility.yul\":4606:4669   */\n    tag_98:\n        /* \"#utility.yul\":4553:4675   */\n      pop\n      jump\t// out\n        /* \"#utility.yul\":4681:4803   */\n    tag_42:\n        /* \"#utility.yul\":4754:4778   */\n      tag_100\n        /* \"#utility.yul\":4772:4777   */\n      dup2\n        /* \"#utility.yul\":4754:4778   */\n      tag_66\n      jump\t// in\n    tag_100:\n        /* \"#utility.yul\":4747:4752   */\n      dup2\n        /* \"#utility.yul\":4744:4779   */\n      eq\n        /* \"#utility.yul\":4734:4797   */\n      tag_101\n      jumpi\n        /* \"#utility.yul\":4793:4794   */\n      0x00\n        /* \"#utility.yul\":4790:4791   */\n      dup1\n        /* \"#utility.yul\":4783:4795   */\n      revert\n        /* \"#utility.yul\":4734:4797   */\n    tag_101:\n        /* \"#utility.yul\":4681:4803   */\n      pop\n      jump\t// out\n\n    auxdata: 0xa26469706673582212207ac70c7cc28f6ce5a6da7270082e5bbe30436781a39ab8a1b1307ad722f24f1a64736f6c63430008070033\n}\n",
				"bytecode": {
					"linkReferences": {},
					"object": "608060405234801561001057600080fd5b50336000806101000a81548173ffffffffffffffffffffffffffffffffffffffff021916908373ffffffffffffffffffffffffffffffffffffffff16021790555061059a806100606000396000f3fe608060405234801561001057600080fd5b50600436106100415760003560e01c806321e5383a14610046578063237c980a14610062578063a6f9dae114610092575b600080fd5b610060600480360381019061005b9190610328565b6100ae565b005b61007c600480360381019061007791906102fb565b6101cf565b604051610089919061041b565b60405180910390f35b6100ac60048036038101906100a791906102fb565b6101e7565b005b60008054906101000a900473ffffffffffffffffffffffffffffffffffffffff1673ffffffffffffffffffffffffffffffffffffffff163373ffffffffffffffffffffffffffffffffffffffff161461013c576040517f08c379a0000000000000000000000000000000000000000000000000000000008152600401610133906103fb565b60405180910390fd5b80600160008473ffffffffffffffffffffffffffffffffffffffff1673ffffffffffffffffffffffffffffffffffffffff168152602001908152602001600020600082825461018b9190610447565b925050819055507f7a702e80a9c183a6ce9d6732991df2e914555ba35a364a70aed2433984e7544b82826040516101c39291906103d2565b60405180910390a15050565b60016020528060005260406000206000915090505481565b60008054906101000a900473ffffffffffffffffffffffffffffffffffffffff1673ffffffffffffffffffffffffffffffffffffffff163373ffffffffffffffffffffffffffffffffffffffff1614610275576040517f08c379a000000000000000000000000000000000000000000000000000000000815260040161026c906103fb565b60405180910390fd5b7fb532073b38c83145e3e5135377a08bf9aab55bc0fd7c1179cd4fb995d2a5159c60008054906101000a900473ffffffffffffffffffffffffffffffffffffffff16826040516102c69291906103a9565b60405180910390a150565b6000813590506102e081610536565b92915050565b6000813590506102f58161054d565b92915050565b60006020828403121561031157610310610508565b5b600061031f848285016102d1565b91505092915050565b6000806040838503121561033f5761033e610508565b5b600061034d858286016102d1565b925050602061035e858286016102e6565b9150509250929050565b6103718161049d565b82525050565b6000610384601483610436565b915061038f8261050d565b602082019050919050565b6103a3816104cf565b82525050565b60006040820190506103be6000830185610368565b6103cb6020830184610368565b9392505050565b60006040820190506103e76000830185610368565b6103f4602083018461039a565b9392505050565b6000602082019050818103600083015261041481610377565b9050919050565b6000602082019050610430600083018461039a565b92915050565b600082825260208201905092915050565b6000610452826104cf565b915061045d836104cf565b9250827fffffffffffffffffffffffffffffffffffffffffffffffffffffffffffffffff03821115610492576104916104d9565b5b828201905092915050565b60006104a8826104af565b9050919050565b600073ffffffffffffffffffffffffffffffffffffffff82169050919050565b6000819050919050565b7f4e487b7100000000000000000000000000000000000000000000000000000000600052601160045260246000fd5b600080fd5b7f53656e646572206973206e6f74206f776e657221000000000000000000000000600082015250565b61053f8161049d565b811461054a57600080fd5b50565b610556816104cf565b811461056157600080fd5b5056fea26469706673582212207ac70c7cc28f6ce5a6da7270082e5bbe30436781a39ab8a1b1307ad722f24f1a64736f6c63430008070033",
					"opcodes": "PUSH1 0x80 PUSH1 0x40 MSTORE CALLVALUE DUP1 ISZERO PUSH2 0x10 JUMPI PUSH1 0x0 DUP1 REVERT JUMPDEST POP CALLER PUSH1 0x0 DUP1 PUSH2 0x100 EXP DUP2 SLOAD DUP2 PUSH20 0xFFFFFFFFFFFFFFFFFFFFFFFFFFFFFFFFFFFFFFFF MUL NOT AND SWAP1 DUP4 PUSH20 0xFFFFFFFFFFFFFFFFFFFFFFFFFFFFFFFFFFFFFFFF AND MUL OR SWAP1 SSTORE POP PUSH2 0x59A DUP1 PUSH2 0x60 PUSH1 0x0 CODECOPY PUSH1 0x0 RETURN INVALID PUSH1 0x80 PUSH1 0x40 MSTORE CALLVALUE DUP1 ISZERO PUSH2 0x10 JUMPI PUSH1 0x0 DUP1 REVERT JUMPDEST POP PUSH1 0x4 CALLDATASIZE LT PUSH2 0x41 JUMPI PUSH1 0x0 CALLDATALOAD PUSH1 0xE0 SHR DUP1 PUSH4 0x21E5383A EQ PUSH2 0x46 JUMPI DUP1 PUSH4 0x237C980A EQ PUSH2 0x62 JUMPI DUP1 PUSH4 0xA6F9DAE1 EQ PUSH2 0x92 JUMPI JUMPDEST PUSH1 0x0 DUP1 REVERT JUMPDEST PUSH2 0x60 PUSH1 0x4 DUP1 CALLDATASIZE SUB DUP2 ADD SWAP1 PUSH2 0x5B SWAP2 SWAP1 PUSH2 0x328 JUMP JUMPDEST PUSH2 0xAE JUMP JUMPDEST STOP JUMPDEST PUSH2 0x7C PUSH1 0x4 DUP1 CALLDATASIZE SUB DUP2 ADD SWAP1 PUSH2 0x77 SWAP2 SWAP1 PUSH2 0x2FB JUMP JUMPDEST PUSH2 0x1CF JUMP JUMPDEST PUSH1 0x40 MLOAD PUSH2 0x89 SWAP2 SWAP1 PUSH2 0x41B JUMP JUMPDEST PUSH1 0x40 MLOAD DUP1 SWAP2 SUB SWAP1 RETURN JUMPDEST PUSH2 0xAC PUSH1 0x4 DUP1 CALLDATASIZE SUB DUP2 ADD SWAP1 PUSH2 0xA7 SWAP2 SWAP1 PUSH2 0x2FB JUMP JUMPDEST PUSH2 0x1E7 JUMP JUMPDEST STOP JUMPDEST PUSH1 0x0 DUP1 SLOAD SWAP1 PUSH2 0x100 EXP SWAP1 DIV PUSH20 0xFFFFFFFFFFFFFFFFFFFFFFFFFFFFFFFFFFFFFFFF AND PUSH20 0xFFFFFFFFFFFFFFFFFFFFFFFFFFFFFFFFFFFFFFFF AND CALLER PUSH20 0xFFFFFFFFFFFFFFFFFFFFFFFFFFFFFFFFFFFFFFFF AND EQ PUSH2 0x13C JUMPI PUSH1 0x40 MLOAD PUSH32 0x8C379A000000000000000000000000000000000000000000000000000000000 DUP2 MSTORE PUSH1 0x4 ADD PUSH2 0x133 SWAP1 PUSH2 0x3FB JUMP JUMPDEST PUSH1 0x40 MLOAD DUP1 SWAP2 SUB SWAP1 REVERT JUMPDEST DUP1 PUSH1 0x1 PUSH1 0x0 DUP5 PUSH20 0xFFFFFFFFFFFFFFFFFFFFFFFFFFFFFFFFFFFFFFFF AND PUSH20 0xFFFFFFFFFFFFFFFFFFFFFFFFFFFFFFFFFFFFFFFF AND DUP2 MSTORE PUSH1 0x20 ADD SWAP1 DUP2 MSTORE PUSH1 0x20 ADD PUSH1 0x0 KECCAK256 PUSH1 0x0 DUP3 DUP3 SLOAD PUSH2 0x18B SWAP2 SWAP1 PUSH2 0x447 JUMP JUMPDEST SWAP3 POP POP DUP2 SWAP1 SSTORE POP PUSH32 0x7A702E80A9C183A6CE9D6732991DF2E914555BA35A364A70AED2433984E7544B DUP3 DUP3 PUSH1 0x40 MLOAD PUSH2 0x1C3 SWAP3 SWAP2 SWAP1 PUSH2 0x3D2 JUMP JUMPDEST PUSH1 0x40 MLOAD DUP1 SWAP2 SUB SWAP1 LOG1 POP POP JUMP JUMPDEST PUSH1 0x1 PUSH1 0x20 MSTORE DUP1 PUSH1 0x0 MSTORE PUSH1 0x40 PUSH1 0x0 KECCAK256 PUSH1 0x0 SWAP2 POP SWAP1 POP SLOAD DUP2 JUMP JUMPDEST PUSH1 0x0 DUP1 SLOAD SWAP1 PUSH2 0x100 EXP SWAP1 DIV PUSH20 0xFFFFFFFFFFFFFFFFFFFFFFFFFFFFFFFFFFFFFFFF AND PUSH20 0xFFFFFFFFFFFFFFFFFFFFFFFFFFFFFFFFFFFFFFFF AND CALLER PUSH20 0xFFFFFFFFFFFFFFFFFFFFFFFFFFFFFFFFFFFFFFFF AND EQ PUSH2 0x275 JUMPI PUSH1 0x40 MLOAD PUSH32 0x8C379A000000000000000000000000000000000000000000000000000000000 DUP2 MSTORE PUSH1 0x4 ADD PUSH2 0x26C SWAP1 PUSH2 0x3FB JUMP JUMPDEST PUSH1 0x40 MLOAD DUP1 SWAP2 SUB SWAP1 REVERT JUMPDEST PUSH32 0xB532073B38C83145E3E5135377A08BF9AAB55BC0FD7C1179CD4FB995D2A5159C PUSH1 0x0 DUP1 SLOAD SWAP1 PUSH2 0x100 EXP SWAP1 DIV PUSH20 0xFFFFFFFFFFFFFFFFFFFFFFFFFFFFFFFFFFFFFFFF AND DUP3 PUSH1 0x40 MLOAD PUSH2 0x2C6 SWAP3 SWAP2 SWAP1 PUSH2 0x3A9 JUMP JUMPDEST PUSH1 0x40 MLOAD DUP1 SWAP2 SUB SWAP1 LOG1 POP JUMP JUMPDEST PUSH1 0x0 DUP2 CALLDATALOAD SWAP1 POP PUSH2 0x2E0 DUP2 PUSH2 0x536 JUMP JUMPDEST SWAP3 SWAP2 POP POP JUMP JUMPDEST PUSH1 0x0 DUP2 CALLDATALOAD SWAP1 POP PUSH2 0x2F5 DUP2 PUSH2 0x54D JUMP JUMPDEST SWAP3 SWAP2 POP POP JUMP JUMPDEST PUSH1 0x0 PUSH1 0x20 DUP3 DUP5 SUB SLT ISZERO PUSH2 0x311 JUMPI PUSH2 0x310 PUSH2 0x508 JUMP JUMPDEST JUMPDEST PUSH1 0x0 PUSH2 0x31F DUP5 DUP3 DUP6 ADD PUSH2 0x2D1 JUMP JUMPDEST SWAP2 POP POP SWAP3 SWAP2 POP POP JUMP JUMPDEST PUSH1 0x0 DUP1 PUSH1 0x40 DUP4 DUP6 SUB SLT ISZERO PUSH2 0x33F JUMPI PUSH2 0x33E PUSH2 0x508 JUMP JUMPDEST JUMPDEST PUSH1 0x0 PUSH2 0x34D DUP6 DUP3 DUP7 ADD PUSH2 0x2D1 JUMP JUMPDEST SWAP3 POP POP PUSH1 0x20 PUSH2 0x35E DUP6 DUP3 DUP7 ADD PUSH2 0x2E6 JUMP JUMPDEST SWAP2 POP POP SWAP3 POP SWAP3 SWAP1 POP JUMP JUMPDEST PUSH2 0x371 DUP2 PUSH2 0x49D JUMP JUMPDEST DUP3 MSTORE POP POP JUMP JUMPDEST PUSH1 0x0 PUSH2 0x384 PUSH1 0x14 DUP4 PUSH2 0x436 JUMP JUMPDEST SWAP2 POP PUSH2 0x38F DUP3 PUSH2 0x50D JUMP JUMPDEST PUSH1 0x20 DUP3 ADD SWAP1 POP SWAP2 SWAP1 POP JUMP JUMPDEST PUSH2 0x3A3 DUP2 PUSH2 0x4CF JUMP JUMPDEST DUP3 MSTORE POP POP JUMP JUMPDEST PUSH1 0x0 PUSH1 0x40 DUP3 ADD SWAP1 POP PUSH2 0x3BE PUSH1 0x0 DUP4 ADD DUP6 PUSH2 0x368 JUMP JUMPDEST PUSH2 0x3CB PUSH1 0x20 DUP4 ADD DUP5 PUSH2 0x368 JUMP JUMPDEST SWAP4 SWAP3 POP POP POP JUMP JUMPDEST PUSH1 0x0 PUSH1 0x40 DUP3 ADD SWAP1 POP PUSH2 0x3E7 PUSH1 0x0 DUP4 ADD DUP6 PUSH2 0x368 JUMP JUMPDEST PUSH2 0x3F4 PUSH1 0x20 DUP4 ADD DUP5 PUSH2 0x39A JUMP JUMPDEST SWAP4 SWAP3 POP POP POP JUMP JUMPDEST PUSH1 0x0 PUSH1 0x20 DUP3 ADD SWAP1 POP DUP2 DUP2 SUB PUSH1 0x0 DUP4 ADD MSTORE PUSH2 0x414 DUP2 PUSH2 0x377 JUMP JUMPDEST SWAP1 POP SWAP2 SWAP1 POP JUMP JUMPDEST PUSH1 0x0 PUSH1 0x20 DUP3 ADD SWAP1 POP PUSH2 0x430 PUSH1 0x0 DUP4 ADD DUP5 PUSH2 0x39A JUMP JUMPDEST SWAP3 SWAP2 POP POP JUMP JUMPDEST PUSH1 0x0 DUP3 DUP3 MSTORE PUSH1 0x20 DUP3 ADD SWAP1 POP SWAP3 SWAP2 POP POP JUMP JUMPDEST PUSH1 0x0 PUSH2 0x452 DUP3 PUSH2 0x4CF JUMP JUMPDEST SWAP2 POP PUSH2 0x45D DUP4 PUSH2 0x4CF JUMP JUMPDEST SWAP3 POP DUP3 PUSH32 0xFFFFFFFFFFFFFFFFFFFFFFFFFFFFFFFFFFFFFFFFFFFFFFFFFFFFFFFFFFFFFFFF SUB DUP3 GT ISZERO PUSH2 0x492 JUMPI PUSH2 0x491 PUSH2 0x4D9 JUMP JUMPDEST JUMPDEST DUP3 DUP3 ADD SWAP1 POP SWAP3 SWAP2 POP POP JUMP JUMPDEST PUSH1 0x0 PUSH2 0x4A8 DUP3 PUSH2 0x4AF JUMP JUMPDEST SWAP1 POP SWAP2 SWAP1 POP JUMP JUMPDEST PUSH1 0x0 PUSH20 0xFFFFFFFFFFFFFFFFFFFFFFFFFFFFFFFFFFFFFFFF DUP3 AND SWAP1 POP SWAP2 SWAP1 POP JUMP JUMPDEST PUSH1 0x0 DUP2 SWAP1 POP SWAP2 SWAP1 POP JUMP JUMPDEST PUSH32 0x4E487B7100000000000000000000000000000000000000000000000000000000 PUSH1 0x0 MSTORE PUSH1 0x11 PUSH1 0x4 MSTORE PUSH1 0x24 PUSH1 0x0 REVERT JUMPDEST PUSH1 0x0 DUP1 REVERT JUMPDEST PUSH32 0x53656E646572206973206E6F74206F776E657221000000000000000000000000 PUSH1 0x0 DUP3 ADD MSTORE POP JUMP JUMPDEST PUSH2 0x53F DUP2 PUSH2 0x49D JUMP JUMPDEST DUP2 EQ PUSH2 0x54A JUMPI PUSH1 0x0 DUP1 REVERT JUMPDEST POP JUMP JUMPDEST PUSH2 0x556 DUP2 PUSH2 0x4CF JUMP JUMPDEST DUP2 EQ PUSH2 0x561 JUMPI PUSH1 0x0 DUP1 REVERT JUMPDEST POP JUMP INVALID LOG2 PUSH5 0x6970667358 0x22 SLT KECCAK256 PUSH27 0xC70C7CC28F6CE5A6DA7270082E5BBE30436781A39AB8A1B1307AD7 0x22 CALLCODE 0x4F BYTE PUSH5 0x736F6C6343 STOP ADDMOD SMOD STOP CALLER "
				},
				"gasEstimates": {
					"creation": {
						"codeDepositCost": "286800",
						"executionCost": "24590",
						"totalCost": "311390"
					},
					"external": {
						"addBalance(address,uint256)": "infinite",
						"addressToBalance(address)": "2814",
						"changeOwner(address)": "infinite"
					}
				},
				"methodIdentifiers": {
					"addBalance(address,uint256)": "21e5383a",
					"addressToBalance(address)": "237c980a",
					"changeOwner(address)": "a6f9dae1"
				}
			},
			"storageLayout": {
				"storage": [
					{
						"astId": 3,
						"contract": "contracts/01-bank.sol:Bank",
						"label": "owner",
						"offset": 0,
						"slot": "0",
						"type": "t_address"
					},
					{
						"astId": 7,
						"contract": "contracts/01-bank.sol:Bank",
						"label": "addressToBalance",
						"offset": 0,
						"slot": "1",
						"type": "t_mapping(t_address,t_uint256)"
					}
				],
				"types": {
					"t_address": {
						"encoding": "inplace",
						"label": "address",
						"numberOfBytes": "20"
					},
					"t_mapping(t_address,t_uint256)": {
						"encoding": "mapping",
						"key": "t_address",
						"label": "mapping(address => uint256)",
						"numberOfBytes": "32",
						"value": "t_uint256"
					},
					"t_uint256": {
						"encoding": "inplace",
						"label": "uint256",
						"numberOfBytes": "32"
					}
				}
			},
			"userdoc": {
				"kind": "user",
				"methods": {},
				"version": 1
			}
		}
	}
}